:1000000008308A0000280000FF00030E8301A100D1
:100010000A08A0008A010408A2007708A300780853
:10002000A4007908A5007A08A600831383128C30F7
:100030008400001C1D280C1832288B1E21280B1947
:100040003528220884002308F7002408F800250832
:10005000F9002608FA0020088A00210E8300FF0E0E
:100060007F0E09008A110A1247288A110A124028B5
:100070000A108A100A11820728340C34013406341D
:10008000FF308100C20A0B118A110A1221288E0149
:10009000F6308F003C308E00420B5D28831609102D
:1000A00083120914C30A4308F43C031D5D28831618
:1000B000091083120910C301C2010C108A110A121F
:1000C0002128CB2755102D10CD244B294F0020106F
:1000D0002028D227CA2200018C2AED3AF431613758
:1000E000A023CF250001311C3019B219301A370076
:1000F0008C29E931E135EC346B1D25324316CE32C3
:100100006D1D25320000C7307A14B117B014BA1231
:1001100064008C29E931E135EC346B1D253243163E
:100120002027E536BA126405000120102010A01225
:100130003019E41725183232AF1230196405001057
:1001400020102010A0123019641D25183232BA1266
:10015000301964008C2CF535F3326B10C7307A10EF
:10016000D332F634F932F3340A002110A0102010F3
:100170002110A01020102110A010201021008C2987
:10018000E931E135EC346B142532A0212900CE375A
:10019000F236613600018C29E931E135EC346B141B
:1001A0002532A0212900D93AEB396536E93C6F396F
:1001B00000018C29E931E135EC34EB2CF535F332D3
:1001C0006C32691025324300C6306E10C135F434EC
:1001D00066008C20F334F234201020142532A02144
:1001E0002900D334E3306B36E93500014E3084000A
:1001F0008313000803190A290130F800F701F70BEF
:10020000FF28F80BFE284A30F700F70B05290829CC
:10021000800BFC280800540EF039F7000F3006055B
:1002200077048600000006141529061008008610C1
:10023000F0308316860083120615000006140000B5
:100240000608060E0F39D400061000000614000040
:100250000608060E0F39D3000610003083168600FC
:100260008312540EF700F030F70577085304F800B6
:100270007808D300D31B1829511C861051188614F6
:100280000000061100000610520ED3000F30D305F7
:100290005308D4000B2152080F39D300D4000B218E
:1002A000080000308316860083128610061106109F
:1002B0000F30CE00F6200130C4004408033C031C7C
:1002C00069290330D4000B210530CE00F620C40A82
:1002D0005D290230D4000B21C4014408033C031CF7
:1002E0007A2944083820C500D1014508D2001721D9
:1002F000C40A6D298A150A12132801304F02FC3EE8
:1003000003188F29043E97298030D0008F29C030F0
:10031000D0008F299430D0008F29D430D000013004
:100320004E02D007D1015008D200172108000A144C
:100330008A100A118207842987298A298D294D0864
:100340000C3A0319AA29063A0319B429023A0319E7
:10035000BB29C029D1010130D20017210130A700EB
:100360000230CE00F620C529A70A0130CE002708AA
:10037000CF007D21C529D1011030D2001721C52918
:100380000130D1004D08D200172108000B08C4002D
:100390008B13831603178C170C14000000008312B4
:1003A0000C087F3903190D2A0313C50003170D0824
:1003B0000313C60003170F080313C7004508CD0039
:1003C0009F21460803178D000313470803178F006A
:1003D00083168C170C140000000083120C0D0E0DF8
:1003E0007F3903190D2A0313C50003170D080313E2
:1003F000C60003170F080313C7004508CD009F214F
:10040000460803178D000313470803178F008D0A52
:1004100003198F0A0313C92903170313C41B8B176E
:100420000800CC014C08073C031C2E2A0310CB0CFF
:1004300003181C2A08131D2A081783160813831291
:10044000B81138088316870083128715B811380849
:100450008316870083128711CC0A122A080083169C
:100460000812831208164508CB0011224608CB005B
:10047000112283160812831208120800831608122C
:10048000831208164808CB001122831608170000B3
:100490008312C9014908073C031C672A8316081701
:1004A0008312081B552A0310562A0314CA0CB811CC
:1004B000380883168700831287155E2AB81138081A
:1004C0008316870083128711652AC90A4A2A831670
:1004D0000812831208124A08F8000800831608124E
:1004E00083120812732AB811380883168700831202
:1004F00087118E30C500C6012F229030C500A43070
:10050000C6002F228130C8003E227808C40044086B
:10051000803903198F2A8030C500C6012F228A1521
:100520000A1294284908CA004A0EF7000F30F7054E
:100530007708CC004C08CD000A30CE00F701F80156
:100540004D0803104E18F707F70CF80CCE18F707F4
:10055000F70CF80C4E19F707F70CF80CCE19F70743
:10056000F70CF80C4E1AF707F70CF80CCE1AF70731
:10057000F70CF80C4E1BF707F70CF80CCE1BF7071F
:10058000F70CF80C7808C9004A0EF700F030F705B0
:100590007708F70E0F30F7057708C9074908F80004
:1005A0000800C4010130CE00F620851485101230F9
:1005B000CE00F62085140930F700F70BDD2AE02A7B
:1005C000C5018518C50AC5080319E92A0130C40008
:1005D000392B1A30F700F70BEB2A0000C5018518FC
:1005E000C50AC508031DF72A0230C400392B1A308A
:1005F000F700F70BF92A0000C6014608033C031C6C
:10060000382B2E304607F800FA010318FA0A78084A
:10061000C8007A08C900CA01CB01CA014A08073CD0
:10062000031C2D2B851C122B0930F700F70B162B02
:10063000192B851C292B4A08073CF8000130F700CC
:10064000F8080319272B0310F70DF80B232B770855
:10065000CB048518292BCA0A0E2B4B08F800480832
:10066000840083134918831778088000C60AFD2A7E
:10067000851408000B08C7008B13831603178C170B
:100680000C140000000003186C2B83120C087F3937
:100690000313C80003170D080313C90003170F083D
:1006A0000313CA004808CD009F21490803178D0095
:1006B00003134A0803178F0083168C170C140000CD
:1006C000000083120313C60B662B692B83160317D6
:1006D0006C2B8B2B8316031783120C0D0E0D7F3999
:1006E0000313C80003170D080313C90003170F08ED
:1006F0000313CA004808CD009F21490803178D0045
:1007000003134A0803178F008D0A03198F0A031079
:100710000313C60B3D2BC71B8B1708004E08F801AF
:100720004D020318962B4D08F700A22BF701083055
:10073000CF00CD0DF70D4E0877020318F700F80D26
:10074000CF0B992B08002030481E3030C9004708D5
:10075000F700C71FB32BF709F70A7708C7002D303A
:10076000C900C81748144708CD006430CE008E2356
:100770007708C70030307807CA004708CD000A3034
:10078000CE008E2330307707CC0030307807CB0096
:100790004908F70030304A020319D22BC814C81B8D
:1007A0004815E62B4908CA002030C90030304B02FA
:1007B0000319DE2B4814C81BC814E62B031D48146C
:1007C000031DE62B4A08CB002030CA004819ED2B48
:1007D000C818F02B4818F32BF62B4908CD009F21A1
:1007E0004A08CD009F214B08CD009F214C08CD0029
:1007F0009F2108002030451E3030C6004408F70015
:10080000C41F0A2CF709F70A7708C4002D30C60068
:10081000C51745144408CD006430CE008E237708F8
:10082000C40030307807C7004408CD000A30CE003D
:100830008E2330307707C90030307807C80046086B
:10084000F700303047020319292CC514C51B451584
:100850003D2C45193D2C4608C700C518342C3030B6
:1008600048020319372C4514C51BC5143D2C031D24
:100870004514031D3D2C4708C8004519442CC518D4
:10088000472C45184A2C4D2C4608CD009F2147087F
:10089000CD009F214808CD009F214908CD009F2110
:0208A00008004E
:10100000FF30B800C201C30183161F149F141F15BF
:101010009F1107309C0083131F3083058312A801A2
:10102000A9018A1151298A150130CE00CF008A11F9
:101030007D218A15613003178D0000308F008A11E1
:101040000313C6218A150130CE000230CF008A1169
:101050007D218A15673003178D0000308F008A11BB
:101060000313C6218A156430CE008A11F6208A1532
:101070000130CE00CF008A117D218A156C30031714
:101080008D0000308F008A110313C6218A150130AC
:10109000CE000230CF008A117D218A1573300317EC
:1010A0008D0000308F008A110313C6218A15643029
:1010B000CE008A11F6208A15831609120030F80036
:1010C000831292000030831692001F149F141F1584
:1010D0009F1183121F10B53090008E01F6308F00E3
:1010E0003C308E0083160108C73938388100FF3044
:1010F000831281008B1683160C14C03083128B046C
:10110000822880283813380883168700831207172F
:10111000B813380883168700831287171830831690
:1011200085008A1183126E2A8A158530C8008A11BB
:101130003E228A157808C400C9008A1192228A15B5
:101140007808BD008330C8008A113E228A157808CD
:10115000C400C9008A1192228A157808BC00813027
:10116000C8008A113E228A157808C400C9008A1175
:1011700092228A157808BB008730C8008A113E2267
:101180008A157808C400C9008A1192228A15780845
:10119000BE008930C8008A113E228A157808C40032
:1011A000C9008A1192228A157808BF008D30C800C4
:1011B0008A113E228A157808C400C9008A11922239
:1011C0008A157808C0008B30C8008A113E228A1523
:1011D0007808C400C9008A1192228A157808C100D3
:1011E0008A11D1228A153008B9002E08BA000130C0
:1011F0004102F93E03189E29073EAB2F0330CE0073
:101200000230CF008A117D218A155030CD008A111D
:101210009F218A154130CD008A119F218A155A30AD
:10122000CD008A119F218A159E290330CE000230FD
:10123000CF008A117D218A155030CD008A119F215F
:101240008A155A30CD008A119F218A155430CD005D
:101250008A119F218A159E290330CE000230CF00CB
:101260008A117D218A155330CD008A119F218A155C
:101270004130CD008A119F218A154C30CD008A1152
:101280009F218A159E290330CE000230CF008A119B
:101290007D218A154330CD008A119F218A15523055
:1012A000CD008A119F218A155330CD008A119F21CC
:1012B0008A159E290330CE000230CF008A117D218D
:1012C0008A155030CD008A119F218A154530CD00F6
:1012D0008A119F218A155230CD008A119F218A15CB
:1012E0009E290330CE000230CF008A117D218A155D
:1012F0004330CD008A119F218A155530CD008A11C7
:101300009F218A154D30CD008A119F218A159E2973
:101310000330CE000230CF008A117D218A15433080
:10132000CD008A119F218A155430CD008A119F214A
:101330008A155330CD008A119F218A15051D872AF1
:101340000C30CD008A119F218A1564000B08F7002C
:101350008B1303178D010313390803178C008316B1
:101360008C130C1555308D00AA308D008C148C1800
:10137000B7290C117708831203138B040B08F700AD
:101380008B13013003178D0003133A0803178C00E9
:1013900083168C130C1555308D00AA308D008C14DB
:1013A0008C18D0290C117708831203138B040B08B7
:1013B000F7008B13023003178D0003133B0803174C
:1013C0008C0083168C130C1555308D00AA308D00BF
:1013D0008C148C18E9290C117708831203138B04E1
:1013E0000B08F7008B13033003178D0003133C0821
:1013F00003178C0083168C130C1555308D00AA3002
:101400008D008C148C18022A0C1177088312031398
:101410008B040B08F7008B13043003178D000313A4
:101420003D0803178C0083168C130C1555308D0066
:10143000AA308D008C148C181B2A0C11770883128B
:1014400003138B040B08F7008B13053003178D0073
:1014500003133E0803178C0083168C130C155530AC
:101460008D00AA308D008C148C18342A0C1177084A
:10147000831203138B040B08F7008B13063003173A
:101480008D0003133F0803178C0083168C130C1573
:1014900055308D00AA308D008C148C184D2A0C11FB
:1014A0007708831203138B040B08F7008B130730A4
:1014B00003178D000313400803178C0083168C1349
:1014C0000C1555308D00AA308D008C148C18662AAE
:1014D0000C117708831203138B040B08F7008B138E
:1014E000083003178D004A308C0083168C130C15BE
:1014F00055308D00AA308D008C148C187D2A0C116B
:101500007708831203138B040519842A6400851D50
:101510008A2B0C30CD008A119F218A156400851D0D
:101520008A2B0130CE00CF008A117D218A15031746
:101530008D0183168C130C1483120C080313C40042
:10154000013003178D0083168C130C1483120C08C2
:101550000313C500783003178D0000308F0003108F
:101560000A300313C6008A113A238A154408C700BB
:101570001830C8008A11A3238A157E3003178D0006
:1015800000308F00031006300313C6008A113A237F
:101590008A154508C7001830C8008A11A3238A1588
:1015A0000130CE000230CF008A117D218A1508302B
:1015B00003178D0083168C130C1483120C0803136D
:1015C000C400833003178D0000308F0003100930F2
:1015D0000313C6008A113A238A154408C70018303D
:1015E000C8008A11A3238A150130CE000330CF0032
:1015F0008A117D218A15043003178D0083168C1300
:101600000C1483120C080313C400033003178D005D
:1016100083168C130C1483120C080313C5000230BC
:1016200003178D0083168C130C1483120C080313FC
:10163000C6002030CD008A119F218A154408C700BA
:101640001830C8008A11A3238A153A30CD008A11B8
:101650009F218A154508C7001830C8008A11A323A6
:101660008A153A30CD008A119F218A154608C70095
:101670001830C8008A11A3238A150130CE00043027
:10168000CF008A117D218A15053003178D0083163E
:101690008C130C1483120C080313C40006300317B8
:1016A0008D0083168C130C1483120C080313C500D1
:1016B000073003178D0083168C130C1483120C084B
:1016C0000313C6002030CD008A119F218A154408DB
:1016D000C7001830C8008A11A3238A152E30CD0008
:1016E0008A119F218A154508C7001830C8008A1141
:1016F000A3238A152E30CD008A119F218A15460812
:10170000C7001830C8008A11A3238A158519862BB3
:1017100064008F2A831689148312891C8F2C0C3045
:10172000CD008A119F218A156400831689148312C3
:10173000891C8E2C8530C8008A113E228A157808B3
:10174000C400C9008A1192228A157808BD0083302E
:10175000C8008A113E228A157808C400C9008A117F
:1017600092228A157808BC008130C8008A113E2276
:101770008A157808C400C9008A1192228A1578084F
:10178000BB008730C8008A113E228A157808C40041
:10179000C9008A1192228A157808BE008930C800D3
:1017A0008A113E228A157808C400C9008A11922243
:1017B0008A157808BF008D30C8008A113E228A152C
:1017C0007808C400C9008A1192228A157808C000DE
:1017D0008B30C8008A113E228A157808C400C900DF
:1017E0008A1192228A157808C1008A11D1228A159D
:1017F0003008B9002E08BA000130CE00CF008A119F
:101800007D218A15893003178D0000308F00031069
:101810000A300313C6008A113A238A153908C70013
:101820001830C8008A11A3238A158F3003178D0042
:1018300000308F00031007300313C6008A113A23CB
:101840008A153A08C7001830C8008A11A3238A15E0
:101850000A30CD008A119F218A15953003178D001B
:1018600000308F00031005300313C6008A113A239D
:101870008A153E08C4000130C5008A11FA238A1572
:101880002F30CD008A119F218A153F08C4000130F6
:10189000C5008A11FA238A152F30CD008A119F21A5
:1018A0008A154008C4000130C5008A11FA238A1540
:1018B0000A30CD008A119F218A15A03003178D00B0
:1018C00000308F00031005300313C6008A113A233D
:1018D0008A153D08C4000130C5008A11FA238A1513
:1018E0003A30CD008A119F218A153C08C40001308E
:1018F000C5008A11FA238A153A30CD008A119F213A
:101900008A153B08C4000130C5008A11FA238A15E4
:10191000FA30CE008A11F6208A15952B64008316C2
:1019200009158312091DB32D0C30CD008A119F219A
:101930008A156400831609158312091DAD2D0C301C
:10194000CD008A119F218A150130CE00CF008A1167
:101950007D218A15AA3003178D0000308F008A116F
:101960000313C6218A15B53003178D0000308F0090
:101970008A110313C6218A158316881383128817C8
:101980006430CE008A11F6208A15831688138312DC
:1019900088136430CE008A11F6208A150B08F700F0
:1019A0008B1303178D010313390803178C0083165B
:1019B0008C130C1555308D00AA308D008C148C18AA
:1019C000DF2C0C117708831203138B040B08F7002C
:1019D0008B13013003178D0003133A0803178C0093
:1019E00083168C130C1555308D00AA308D008C1485
:1019F0008C18F82C0C117708831203138B040B0836
:101A0000F7008B13023003178D0003133B080317F5
:101A10008C0083168C130C1555308D00AA308D0068
:101A20008C148C18112D0C117708831203138B045E
:101A30000B08F7008B13033003178D0003133C08CA
:101A400003178C0083168C130C1555308D00AA30AB
:101A50008D008C148C182A2D0C1177088312031317
:101A60008B040B08F7008B13043003178D0003134E
:101A70003D0803178C0083168C130C1555308D0010
:101A8000AA308D008C148C18432D0C11770883120A
:101A900003138B040B08F7008B13053003178D001D
:101AA00003133E0803178C0083168C130C15553056
:101AB0008D00AA308D008C148C185C2D0C117708C9
:101AC000831203138B040B08F7008B1306300317E4
:101AD0008D0003133F0803178C0083168C130C151D
:101AE00055308D00AA308D008C148C18752D0C117A
:101AF0007708831203138B040B08F7008B1307304E
:101B000003178D000313400803178C0083168C13F2
:101B10000C1555308D00AA308D008C148C188E2D2C
:101B20000C117708831203138B040B08F7008B1337
:101B3000083003178D004A308C0083168C130C1567
:101B400055308D00AA308D008C148C18A52D0C11E9
:101B50007708831203138B049A2C831609158312BA
:101B60000919AD2D64000F30F70081018130840028
:101B700083130008F0390738800064000008F73943
:101B8000F719F0397704800039081D3C031C342E06
:101B90000730CE000130CF008A117D218A15BF3079
:101BA00003178D0000308F0003100A300313C600A6
:101BB0008A113A238A153908C7001830C8008A11DB
:101BC000A3238A152030CD008A119F218A15433026
:101BD000CD008A119F218A152930CD008A119F21BD
:101BE0008A150530CE000230CF008A117D218A157A
:101BF000C73003178D0000308F008A110313C621F0
:101C00008A15FA30CE008A11F6208A15831608103C
:101C100083120814381038088316870083120710BF
:101C2000B81038088316870083128710831688112E
:101C30008312881183168810831288108316081166
:101C40008312081139081D3C03182A2E3908233C39
:101C50000318342E051E312EC208031D312E5C28B8
:101C6000342E6400342EC42D39081D3C0318A32ED5
:101C70003908233C031CA32E0830CE000130CF00CE
:101C80008A117D218A15CB3003178D0000308F001B
:101C900003100A300313C6008A113A238A15390843
:101CA000C7001830C8008A11A3238A152030CD0040
:101CB0008A119F218A154330CD008A119F218A15F0
:101CC0002930CD008A119F218A150430CE000230C0
:101CD000CF008A117D218A15D33003178D00003083
:101CE0008F008A110313C6218A15FA30CE008A119B
:101CF000F6208A158316881083128814831688119B
:101D000083128815FA30CE008A11F6208A158316C0
:101D1000881083128810831688118312881139085D
:101D2000233C0318952EA32E992E39081D3C031829
:101D3000C42D051EA02EC208031DA02E5C28A32EB4
:101D40006400A32E342E3908233C0318112F3908C0
:101D5000283C031C112F831608108312081038101A
:101D600038088316870083120714B81038088316C2
:101D70008700831287100430CE000130CF008A1113
:101D80007D218A15D93003178D0000308F00031094
:101D900012300313C6008A113A238A153908C70086
:101DA0001830C8008A11A3238A154330CD008A1148
:101DB0009F218A150530CE000230CF008A117D2187
:101DC0008A15E43003178D0000308F008A11031349
:101DD000C6218A1583168811831288158316081167
:101DE000831208156430CE008A11F6208A158316F6
:101DF000081183120811831688118312881139087B
:101E00001D3C0318072F3908233C0318342E051EE8
:101E10000E2FC208031D0E2F5C28112F6400112FF6
:101E2000A32E3908283C0318A92F83168811831282
:101E30008815831608118312081538103808831680
:101E4000870083120714B81038088316870083129E
:101E500087108316081083120810831688108312C7
:101E600088100730CE000130CF008A117D218A15FD
:101E7000E93003178D0000308F0003100A30031380
:101E8000C6008A113A238A153908C7001830C800DD
:101E90008A11A3238A152030CD008A119F218A152B
:101EA0004330CD008A119F218A152930CD008A1137
:101EB0009F218A150830CE000230CF008A117D2183
:101EC0008A15F13003178D0000308F008A1103133B
:101ED000C6218A15FA30CE008A11F6208A15051C13
:101EE0008F2F1430CE008A11F6208A150C30CD00C9
:101EF0008A119F218A15B813380883168700831228
:101F00008717381238088316870083120716B8120D
:101F1000380883168700831287126400952FB81340
:101F2000380883168700831287133908233C031867
:101F30009F2F3908283C031C9F2FA32EA92F051E75
:101F4000A62FC208031DA62F5C28A92F6400A92F65
:101F5000112F952863000A148A140A158207FE2897
:0C1F600015292C2943295A2971298829A8
:02400E00393F38
:00000001FF
;PIC16F877A
;CRC=F2C3  CREATED="28-Oca-24 22:57"
